:020000040800F2
:100000000050002099080008E9080008E9080008E5
:10001000E9080008E9080008E908000800000000F5
:10002000000000000000000000000000E9080008D7
:10003000E908000800000000E9080008E9080008D5
:10004000E9080008E9080008E9080008E9080008CC
:10005000E9080008E9080008D1020008F5020008D4
:10006000190300083D03000861030008E9080008BF
:10007000E9080008E9080008E9080008E90800089C
:10008000E9080008E9080008E9080008E90800088C
:10009000E9080008E9080008E908000885030008E5
:1000A000E9080008E9080008E9080008E90800086C
:1000B000E9080008E9080008E9080008E90800085C
:1000C000E9080008E9080008E9080008E90800084C
:1000D000E9080008E9080008E9080008E90800083C
:1000E0002D040008E908000800000000E9080008E5
:1000F000E9080008E9080008E9080008E90800081C
:10010000E9080008E9080008E9080008E90800080B
:10011000E9080008E9080008E9080008E9080008FB
:10012000E9080008E9080008E9080008E9080008EB
:1001300010B5054C237833B9044B13B10448AFF321
:1001400000800123237010BD00000020000000008B
:100150003409000808B5034B1BB103490348AFF34A
:10016000008008BD000000000400002034090008E1
:1001700080B582B000AF0023FB7100F06DF803463C
:10018000FB71FB79002B03D0002000F071F802E036
:10019000012000F06DF800BF0837BD4680BD80B576
:1001A00084B000AF0346FB710123FB73FB79002B86
:1001B00006D10021802000F027F80023FB730BE01C
:1001C000FB79012B06D10121802000F01DF80023CE
:1001D000FB7301E00123FB73FB7B18461037BD4620
:1001E00080BD80B582B000AF0023FB80082000F006
:1001F00021F80346FB80FB88DBB2184600F058F874
:1002000000BF0837BD4680BD80B582B000AF034651
:100210000A46FB711346BB71FB799BB2BA7919464A
:10022000034800F0A8FA00BF0837BD4680BD00BFF4
:100230000008014080B582B000AF0346FB71FB7936
:100240009BB21946034800F0ADFA0346184608373A
:10025000BD4680BD0008014080B400AF034B1B6861
:100260001B781846BD4680BC704700BF4C0900088B
:1002700080B584B000AF0346FB710B4B1B78FB735A
:100280000A4B1B68002B06D0084B1B68FA791046F6
:1002900098470346FB73FB791846FFF780FFFB7B0B
:1002A00018461037BD4680BD1D00002020000020EC
:1002B00080B483B000AF0346FB71044B1B68FA792E
:1002C0001A7000BF0C37BD4680BC7047500900084B
:1002D00080B500AF054B5B69044A43F001035361ED
:1002E000034B1B68984700BF80BD00BF000401405E
:1002F0002400002080B500AF054B5B69044A43F041
:1003000002035361034B5B68984700BF80BD00BF89
:10031000000401402400002080B500AF054B5B695C
:10032000044A43F004035361034B9B68984700BFA2
:1003300080BD00BF000401402400002080B500AF54
:10034000054B5B69044A43F008035361034BDB68C8
:10035000984700BF80BD00BF00040140240000207A
:1003600080B500AF054B5B69044A43F0100353614D
:10037000034B1B69984700BF80BD00BF00040140CC
:100380002400002080B500AF264B5B6903F02003FA
:10039000002B08D0234B5B69224A43F020035361B2
:1003A000214B5B6998471F4B5B6903F04003002BAF
:1003B00008D01C4B5B691B4A43F0400353611A4B46
:1003C0009B699847174B5B6903F08003002B08D0AB
:1003D000144B5B69134A43F080035361124BDB6992
:1003E0009847104B5B6903F48073002B08D00D4BCA
:1003F0005B690C4A43F4807353610B4B1B6A98474B
:10040000084B5B6903F40073002B08D0054B5B6954
:10041000044A43F400735361034B5B6A984700BF7F
:1004200080BD00BF000401402400002080B500AF63
:100430002D4B5B6903F48063002B08D02A4B5B696A
:10044000294A43F480635361284B9B6A9847264BA3
:100450005B6903F40063002B08D0234B5B69224ADD
:1004600043F400635361214BDB6A98471E4B5B6981
:1004700003F48053002B08D01B4B5B691A4A43F4EA
:1004800080535361194B1B6B9847174B5B6903F4FF
:100490000053002B08D0144B5B69134A43F40053FC
:1004A0005361124B5B6B98470F4B5B6903F48043BE
:1004B000002B08D00C4B5B690B4A43F4804353611B
:1004C0000A4B9B6B9847084B5B6903F40043002B76
:1004D00008D0054B5B69044A43F400435361034B66
:1004E000DB6B984700BF80BD000401402400002062
:1004F00080B483B000AF0346FB80FB88B3F5004FA8
:1005000000F0A580B3F5004F00F3A380B3F5804F52
:1005100000F09B80B3F5804F00F39B80B3F5005F44
:1005200000F09180B3F5005F00F39380B3F5805F36
:1005300000F08780B3F5805F00F38B80B3F5006F28
:100540007DD0B3F5006F00F38480B3F5806F74D075
:10055000B3F5806F7DDCB3F5007F6CD0B3F5007F21
:1005600077DCB3F5807F64D0B3F5807F71DC802BBE
:100570005DD0802B6DDC202B48DC002B69DD013B3E
:100580001F2B66D801A252F823F000BF1306000803
:1005900017060008530600081B060008530600084B
:1005A00053060008530600081F06000853060008FB
:1005B00053060008530600085306000853060008B7
:1005C00053060008530600082306000853060008D7
:1005D0005306000853060008530600085306000897
:1005E0005306000853060008530600085306000887
:1005F0005306000853060008530600085306000877
:10060000530600085306000827060008402B0CD0AC
:100610001FE000231EE004231CE008231AE00C2343
:1006200018E0102316E0142314E0182312E01C2312
:1006300010E000230EE004230CE008230AE00C2362
:1006400008E0102306E0142304E0182302E01C2332
:1006500000E0FF2318460C37BD4680BC704700BF42
:1006600090B585B000AF786039600023BB603B680F
:100670001B889BB2FF2B01D87B6801E07B680433A9
:10068000BB603B681B889BB21846FFF731FF0346EF
:100690001A460F239340DA43BB681B681A40BB68B5
:1006A0001A603B685B889BB2042B0ED03B685B886A
:1006B0009BB2052B09D03B685B889BB2062B04D00C
:1006C0003B685B889BB2072B10D13B685B889BB271
:1006D000043B9B001AB23B689B889BB21BB213433E
:1006E0001BB29BB203F00F03FB8131E03B685B88D8
:1006F0009BB2012B04D03B685B889BB2002B08D1D6
:100700003B685B889BB29B009BB203F00F03FB81AD
:100710001EE03B685B889BB29B009BB203F00F031B
:10072000FB813B685B889BB2022B08D13B681B882E
:100730009AB27B68DB681A437B68DA6008E03B6842
:100740001B889BB2DA437B68DB681A407B68DA60FF
:10075000FC893B681B889BB21846FFF7C9FE03461D
:1007600004FA03F2BB681B681A43BB681A6000BF37
:100770001437BD4690BD80B483B000AF78600B469F
:100780007B8013467B707B78012B03D17A887B6852
:100790001A6102E07A887B685A6100BF0C37BD4657
:1007A00080BC704780B485B000AF78600B467B801A
:1007B0007B689A687B881340002B02D00123FB736F
:1007C00001E00023FB73FB7B18461437BD4680BC59
:1007D000704780B500AF00F003F800F03FF8FEE787
:1007E00080B500AF0F4B9B690E4A43F00403936141
:1007F0000D4B01229A800C4B04225A800A4B802216
:100800001A8009490948FFF72BFF074B01225A803C
:10081000054B08221A8004490448FFF721FF00BF56
:1008200080BD00BF001002406000002000080140B1
:1008300080B485B000AF78607B68074AA2FB0323D1
:100840005B08FB60FB68013BFDD1FB6000BF143718
:10085000BD4680BC704700BFABAAAAAA80B582B0D3
:1008600000AF0023FB71FB790A2B05D1FFF7B9FC20
:10087000FB790133FB710AE0FB790C2B04D1FFF704
:1008800077FC0023FB7102E0FB790133FB710A2046
:10089000FFF7CEFFE7E700000D488546AFF3008085
:1008A0000C480D490D4A002302E0D458C4500433CB
:1008B000C4188C42F9D30A4A0A4C002301E01360A1
:1008C0000432A242FBD300F011F8FFF782FFFEE7EB
:1008D0000050002000000020000000205C090008FB
:1008E0000000002068000020FEE7000070B5002630
:1008F0000C4D0D4C641BA410A64209D100F01AF84F
:1009000000260A4D0A4C641BA410A64205D170BDF6
:1009100055F8043B98470136EEE755F8043B9847F5
:100920000136F2E754090008540900085409000888
:1009300058090008F8B500BFF8BC08BC9E467047CF
:0C094000F8B500BFF8BC08BC9E4670472C
:08094C001C0000201C0000202B
:040954005501000841
:040958003101000861
:04000005080008994E
:00000001FF
